:020000040000fa
:080000000001040000000000f3
:020000040000fa
:04000800c80100002b
:020000040000fa
:04000c00c801000027
:020000040000fa
:04001000c801000023
:020000040000fa
:04001400c80100001f
:020000040000fa
:04001800c80100001b
:020000040000fa
:04001c00c801000017
:020000040000fa
:04002000c801000013
:020000040000fa
:04002400c80100000f
:020000040000fa
:04002800c80100000b
:020000040000fa
:04002c00c801000007
:020000040000fa
:04003000c801000003
:020000040000fa
:04003400c8010000ff
:020000040000fa
:04003800c8010000fb
:020000040000fa
:04003c00c8010000f7
:020000040000fa
:04004000c8010000f3
:020000040000fa
:04004400c8010000ef
:020000040000fa
:04004800c8010000eb
:020000040000fa
:04004c00c8010000e7
:020000040000fa
:04005000c8010000e3
:020000040000fa
:04005400c8010000df
:020000040000fa
:04005800c8010000db
:020000040000fa
:04005c00c8010000d7
:020000040000fa
:04006000c8010000d3
:020000040000fa
:04006400c8010000cf
:020000040000fa
:04006800c8010000cb
:020000040000fa
:04006c00c8010000c7
:020000040000fa
:04007000c8010000c3
:020000040000fa
:04007400c8010000bf
:020000040000fa
:04007800c8010000bb
:020000040000fa
:04007c00c8010000b7
:020000040000fa
:04008000c8010000b3
:020000040000fa
:04008400c8010000af
:020000040000fa
:04008800c8010000ab
:020000040000fa
:04008c00c8010000a7
:020000040000fa
:04009000c8010000a3
:020000040000fa
:04009400c80100009f
:020000040000fa
:04009800c80100009b
:020000040000fa
:04009c00c801000097
:020000040000fa
:0400a000c801000093
:020000040000fa
:0400a400c80100008f
:020000040000fa
:0400a800c80100008b
:020000040000fa
:0400ac00c801000087
:020000040000fa
:0400b000c801000083
:020000040000fa
:0400b400c80100007f
:020000040000fa
:0400b800c80100007b
:020000040000fa
:0400bc00c801000077
:020000040000fa
:0400c000c801000073
:020000040000fa
:0400c400c80100006f
:020000040000fa
:0400c800c80100006b
:020000040000fa
:0400cc00c801000067
:020000040000fa
:0400d000c801000063
:020000040000fa
:0400d400c80100005f
:020000040000fa
:0400d800c80100005b
:020000040000fa
:04010800c80100002a
:020000040000fa
:04010c00c801000026
:020000040000fa
:04011000c801000022
:020000040000fa
:04011400c80100001e
:020000040000fa
:04011800c80100001a
:020000040000fa
:04011c00c801000016
:020000040000fa
:04012000c801000012
:020000040000fa
:04012400c80100000e
:020000040000fa
:04012800c80100000a
:020000040000fa
:04012c00c801000006
:020000040000fa
:04013000c801000002
:020000040000fa
:04013400c8010000fe
:020000040000fa
:04013800c8010000fa
:020000040000fa
:04013c00c8010000f6
:020000040000fa
:04014000c8010000f2
:020000040000fa
:04014400c8010000ee
:020000040000fa
:04014800c8010000ea
:020000040000fa
:04014c00c8010000e6
:020000040000fa
:04015000c8010000e2
:020000040000fa
:04015400c8010000de
:020000040000fa
:04015800c8010000da
:020000040000fa
:04015c00c8010000d6
:020000040000fa
:04016000c8010000d2
:020000040000fa
:04016400c8010000ce
:020000040000fa
:04016800c8010000ca
:020000040000fa
:04016c00c8010000c6
:020000040000fa
:04017000c8010000c2
:020000040000fa
:04017400c8010000be
:020000040000fa
:04017800c8010000ba
:020000040000fa
:04017c00c8010000b6
:020000040000fa
:04018000c8010000b2
:020000040000fa
:04018400c8010000ae
:020000040000fa
:04018800c8010000aa
:020000040000fa
:04018c00c8010000a6
:020000040000fa
:04019000c8010000a2
:020000040000fa
:04019400c80100009e
:020000040000fa
:04019800c80100009a
:020000040000fa
:04019c00c801000096
:020000040000fa
:0401a000c801000092
:020000040000fa
:0401a400c80100008e
:020000040000fa
:0401a800c80100008a
:020000040000fa
:0401ac00c801000086
:020000040000fa
:0401b000c801000082
:020000040000fa
:0401b400c80100007e
:020000040000fa
:0401b800c80100007a
:020000040000fa
:0401bc00c801000076
:020000040000fa
:0401c000c801000072
:020000040000fa
:0401c400c80100006e
:020000040000fa
:0401c800c80100006a
:020000040000fa
:0401cc00c801000066
:020000040000fa
:0401d000c801000062
:020000040000fa
:0401d400c80100005e
:020000040000fa
:0401d800c80100005a
:020000040000fa
:100200004f8020000eff20000e018800000000003b
:10021000000020000000e000020032000001200089
:1002200020028800140007005b0007000000e000c7
:1002300003003a00e03420000100200002003700f3
:100240000000200001002000810f7000010032003a
:1002500014000700000020000000e000020032004f
:100260000000020000000000300302000000000057
:100270000040da000000fe004440a9000000200019
:100280000000e0000300320000002000a001880010
:100290004440a800000006008a1f78008b1f7800e9
:1002a0000000060091018800800478000000eb0047
:1002b0001a003700e284440032a0b4009905ba0065
:1002c000e284440032a0b4009906ba00e2844400fb
:1002d00032a0b4000006eb00476fde00fd07b2005d
:1002e000636ce10003003a00ebff07000000eb0045
:1002f0000a003700606ce10004003a00005deb008a
:100300008b05e900fdff3e00040037006168e10055
:10031000010032000086eb000b00070019c7ba008d
:100320001905ba000e04e00003003a000a00e000dc
:10033000e0ff3a0000000600fe07b2009e018800c0
:100340008a047800f5ff3700395dba008b05e900b3
:100350000c003200295dba008b05e900080032006c
:100360000c00e00003003a00e284440032a0b40034
:10037000f5ff370019ddba008b05e900faff3a00f6
:100380008904e800e184440032a0b40000000600c3
:0c0390000040da000000fe000000050044
:020000040000fa
:10039c000000fa000080eb0040158800c622ef0038
:1003ac00cc22ef00d222ef00de22ef00c022ef00c1
:1003bc000080fa00000006000000fa000028ef00a0
:1003cc000c0037000228ef000300370010408000bb
:1003dc000000e8001040880011408000f018200058
:1003ec00808f5000f9ff3600004080000000e800cc
:1003fc000040880001408000b02b2000808f50000e
:10040c00f0ff36000080fa00000006000000fa0041
:10041c00ca02a800e8ff0700ca22a800e6ff0700ee
:10042c00ca42a800e4ff0700ca62a800e2ff070066
:10043c00ca82a800e0ff0700caa2a800deff0700de
:10044c00cac2a800dcff0700cae2a800daff070056
:10045c00cb02a800d8ff0700cb22a800d6ff0700cc
:10046c00cb42a800d4ff0700cb62a800d2ff070044
:10047c00cb82a800d0ff07000080fa000000060025
:10048c000000fa00ca02a900cbff0700ca22a9008b
:10049c00c9ff0700ca42a900c7ff0700ca62a9002a
:1004ac00c5ff0700ca82a900c3ff0700caa2a900a2
:1004bc00c1ff0700cac2a900bfff0700cae2a9001a
:1004cc00bdff0700cb02a900bbff0700cb22a90090
:1004dc00b9ff0700cb42a900b7ff0700cb62a90008
:1004ec00b5ff0700cb82a900b3ff07000080fa001c
:1004fc00000006000000fa00d1a2a800aeff070021
:10050c00d1c2a800acff07000080fa000000060072
:10051c000000fa00d1a2a900a7ff0700d1c2a900d0
:10052c00a5ff07000080fa00000006000000fa009a
:10053c00d602a800a0ff0700d622a8009eff070045
:10054c00d642a8009cff0700d662a8009aff0700bd
:10055c00d702a80098ff0700d722a80096ff070033
:10056c000080fa00000006000000fa00d602a90084
:10057c0091ff0700d622a9008fff0700d642a900e1
:10058c008dff0700d662a9008bff0700d702a900d8
:10059c0089ff0700d722a90087ff07000080fa0017
:1005ac00000006000000fa00c562a80082ff0700e8
:1005bc000080fa00000006000000fa00c562a900e5
:1005cc007dff07000080fa00000006000000fa0022
:1005dc00e202a80078ff0700e222a80076ff0700dd
:1005ec00e242a80074ff0700e262a80072ff070055
:1005fc00e282a80070ff0700e2a2a8006eff0700cd
:10060c00e2c2a8006cff07000080fa0000000600a0
:10061c000000fa00e202a90067ff0700e222a9002d
:10062c0065ff0700e242a90063ff0700e262a90030
:10063c0061ff0700e282a9005fff0700e2a2a900a8
:10064c005dff0700e2c2a9005bff07000080fa0013
:10065c00000006000400fa00000f78001107980053
:10066c004bff070069ff0700a2ff0700afff070061
:10067c00ccff0700d5ff070081ff0700a4ff070090
:10068c00b9ff0700ccff0700e1ff0700f5ff3700bb
:020000040000fa
:10069c000008000004000000000000000000000042
:020000040000fa
:0200000401f009
:040000000587000070
:020000040000fa
:0200000401f009
:040004003f000000b9
:00000001FF
