:020000040000fa
:080000000001040000000000f3
:020000040000fa
:04000800fc010000f7
:020000040000fa
:04000c00fc010000f3
:020000040000fa
:04001000fc010000ef
:020000040000fa
:04001400fc010000eb
:020000040000fa
:04001800fc010000e7
:020000040000fa
:04001c00fc010000e3
:020000040000fa
:04002000fc010000df
:020000040000fa
:04002400fc010000db
:020000040000fa
:04002800fc010000d7
:020000040000fa
:04002c00fc010000d3
:020000040000fa
:04003000fc010000cf
:020000040000fa
:04003400fc010000cb
:020000040000fa
:04003800fc010000c7
:020000040000fa
:04003c00fc010000c3
:020000040000fa
:04004000c8010000f3
:020000040000fa
:04004400fc010000bb
:020000040000fa
:04004800fc010000b7
:020000040000fa
:04004c00fc010000b3
:020000040000fa
:04005000fc010000af
:020000040000fa
:04005400fc010000ab
:020000040000fa
:04005800fc010000a7
:020000040000fa
:04005c00fc010000a3
:020000040000fa
:04006000fc0100009f
:020000040000fa
:04006400fc0100009b
:020000040000fa
:04006800fc01000097
:020000040000fa
:04006c00fc01000093
:020000040000fa
:04007000fc0100008f
:020000040000fa
:04007400fc0100008b
:020000040000fa
:04007800fc01000087
:020000040000fa
:04007c00fc01000083
:020000040000fa
:04008000fc0100007f
:020000040000fa
:04008400fc0100007b
:020000040000fa
:04008800fc01000077
:020000040000fa
:04008c00fc01000073
:020000040000fa
:04009000fc0100006f
:020000040000fa
:04009400fc0100006b
:020000040000fa
:04009800fc01000067
:020000040000fa
:04009c00fc01000063
:020000040000fa
:0400a000fc0100005f
:020000040000fa
:0400a400fc0100005b
:020000040000fa
:0400a800fc01000057
:020000040000fa
:0400ac00fc01000053
:020000040000fa
:0400b000fc0100004f
:020000040000fa
:0400b400fc0100004b
:020000040000fa
:0400b800fc01000047
:020000040000fa
:0400bc00fc01000043
:020000040000fa
:0400c000fc0100003f
:020000040000fa
:0400c400fc0100003b
:020000040000fa
:0400c800fc01000037
:020000040000fa
:0400cc00fc01000033
:020000040000fa
:0400d000fc0100002f
:020000040000fa
:0400d400fc0100002b
:020000040000fa
:0400d800fc01000027
:020000040000fa
:04010800fc010000f6
:020000040000fa
:04010c00fc010000f2
:020000040000fa
:04011000fc010000ee
:020000040000fa
:04011400fc010000ea
:020000040000fa
:04011800fc010000e6
:020000040000fa
:04011c00fc010000e2
:020000040000fa
:04012000fc010000de
:020000040000fa
:04012400fc010000da
:020000040000fa
:04012800fc010000d6
:020000040000fa
:04012c00fc010000d2
:020000040000fa
:04013000fc010000ce
:020000040000fa
:04013400fc010000ca
:020000040000fa
:04013800fc010000c6
:020000040000fa
:04013c00fc010000c2
:020000040000fa
:04014000c8010000f2
:020000040000fa
:04014400fc010000ba
:020000040000fa
:04014800fc010000b6
:020000040000fa
:04014c00fc010000b2
:020000040000fa
:04015000fc010000ae
:020000040000fa
:04015400fc010000aa
:020000040000fa
:04015800fc010000a6
:020000040000fa
:04015c00fc010000a2
:020000040000fa
:04016000fc0100009e
:020000040000fa
:04016400fc0100009a
:020000040000fa
:04016800fc01000096
:020000040000fa
:04016c00fc01000092
:020000040000fa
:04017000fc0100008e
:020000040000fa
:04017400fc0100008a
:020000040000fa
:04017800fc01000086
:020000040000fa
:04017c00fc01000082
:020000040000fa
:04018000fc0100007e
:020000040000fa
:04018400fc0100007a
:020000040000fa
:04018800fc01000076
:020000040000fa
:04018c00fc01000072
:020000040000fa
:04019000fc0100006e
:020000040000fa
:04019400fc0100006a
:020000040000fa
:04019800fc01000066
:020000040000fa
:04019c00fc01000062
:020000040000fa
:0401a000fc0100005e
:020000040000fa
:0401a400fc0100005a
:020000040000fa
:0401a800fc01000056
:020000040000fa
:0401ac00fc01000052
:020000040000fa
:0401b000fc0100004e
:020000040000fa
:0401b400fc0100004a
:020000040000fa
:0401b800fc01000046
:020000040000fa
:0401bc00fc01000042
:020000040000fa
:0401c000fc0100003e
:020000040000fa
:0401c400fc0100003a
:020000040000fa
:0401c800fc01000036
:020000040000fa
:0401cc00fc01000032
:020000040000fa
:0401d000fc0100002e
:020000040000fa
:0401d400fc0100002a
:020000040000fa
:0401d800fc01000026
:020000040000fa
:100200008f8020000eff20000e01880000000000fb
:10021000000020000000e000020032000001200089
:100220002002880014000700750007000000e000ad
:1002300003003a00e02920000100200002003700fe
:100240000000200001002000810f7000010032003a
:1002500014000700000020000000e000020032004f
:100260000000020000000000520202000000000036
:100270000040da000000fe004440a9000000200019
:100280000000e0000300320000002000a001880010
:100290004440a800000006008a1f78008b1f7800e9
:1002a0000000060091018800800478000000eb0047
:1002b0001a003700e284440032a0b4009905ba0065
:1002c000e284440032a0b4009906ba00e2844400fb
:1002d00032a0b4000006eb00476fde00fd07b2005d
:1002e000636ce10003003a00ebff07000000eb0045
:1002f0000a003700606ce10004003a00005deb008a
:100300008b05e900fdff3e00040037006168e10055
:10031000010032000086eb000b00070019c7ba008d
:100320001905ba000e04e00003003a000a00e000dc
:10033000e0ff3a0000000600fe07b2009e018800c0
:100340008a047800f5ff3700395dba008b05e900b3
:100350000c003200295dba008b05e900080032006c
:100360000c00e00003003a00e284440032a0b40034
:10037000f5ff370019ddba008b05e900faff3a00f6
:100380008904e800e184440032a0b40000000600c3
:10039000809fbe003400f80000002000a00188000b
:1003a0000000fa000621ef00100020002040880025
:1003b000004080000000e8000040880010408000fd
:1003c0000000e8001040880001408000803e2000ce
:1003d000808f500003003a000028ef00100020003a
:1003e0003040880084c0a9000080fa003400f90081
:1003f0004f00be00004006000040da000000fe0092
:0404000000000500f3
:020000040000fa
:100404000200fa00000f78000228ef00000000004c
:100414009e00780010408000808f5000fcff3e005a
:100424000080fa00000006000000fa00d602a900cd
:10043400d602a80090002000f1ff0700d602a90010
:10044400e00b2000eeff07000080fa000000060029
:100454000000fa00d602a900d602a800300120004c
:10046400e7ff0700d602a900400b2000e4ff0700c5
:100474000080fa00000006000000fa00d602a9007d
:10048400d602a80010002000ddff0700d602a90054
:10049400700c2000daff07000080fa00000006005c
:1004a4000000fa00a882a800c682a900d202a9000e
:1004b400d222a800d242a800d262a80014000700e9
:1004c4000100370000000000a016800062006000f8
:1004d4000000e00002003200d3ff0700faff3700fb
:1004e400a0168000640060000000e00002003200fa
:1004f400d7ff0700f4ff3700a016800068006000f3
:100504000000e000efff3200dbff0700eeff3700e2
:100514000000fa000621ef00803e200060088800f9
:100524001021a90084c0a9008cc0a80011e1a80072
:080534000080fa00000006003f
:020000040000fa
:10053c00000800000800000000000000000000009f
:020000040000fa
:0200000401f009
:040000000587000070
:020000040000fa
:0200000401f009
:040004003f000000b9
:00000001FF
