:020000040000fa
:080000000001040000000000f3
:020000040000fa
:0400080010020000e2
:020000040000fa
:04000c0010020000de
:020000040000fa
:0400100010020000da
:020000040000fa
:0400140010020000d6
:020000040000fa
:0400180010020000d2
:020000040000fa
:04001c0010020000ce
:020000040000fa
:0400200010020000ca
:020000040000fa
:0400240010020000c6
:020000040000fa
:0400280010020000c2
:020000040000fa
:04002c0010020000be
:020000040000fa
:0400300010020000ba
:020000040000fa
:0400340010020000b6
:020000040000fa
:0400380010020000b2
:020000040000fa
:04003c0010020000ae
:020000040000fa
:0400400010020000aa
:020000040000fa
:0400440010020000a6
:020000040000fa
:0400480010020000a2
:020000040000fa
:04004c00cc010000e3
:020000040000fa
:04005000100200009a
:020000040000fa
:040054001002000096
:020000040000fa
:040058001002000092
:020000040000fa
:04005c00100200008e
:020000040000fa
:04006000100200008a
:020000040000fa
:040064001002000086
:020000040000fa
:040068001002000082
:020000040000fa
:04006c00100200007e
:020000040000fa
:04007000100200007a
:020000040000fa
:040074001002000076
:020000040000fa
:040078001002000072
:020000040000fa
:04007c00100200006e
:020000040000fa
:04008000100200006a
:020000040000fa
:040084001002000066
:020000040000fa
:040088001002000062
:020000040000fa
:04008c00100200005e
:020000040000fa
:04009000100200005a
:020000040000fa
:040094001002000056
:020000040000fa
:040098001002000052
:020000040000fa
:04009c00100200004e
:020000040000fa
:0400a000100200004a
:020000040000fa
:0400a4001002000046
:020000040000fa
:0400a8001002000042
:020000040000fa
:0400ac00100200003e
:020000040000fa
:0400b000100200003a
:020000040000fa
:0400b4001002000036
:020000040000fa
:0400b8001002000032
:020000040000fa
:0400bc00100200002e
:020000040000fa
:0400c000100200002a
:020000040000fa
:0400c4001002000026
:020000040000fa
:0400c8001002000022
:020000040000fa
:0400cc00100200001e
:020000040000fa
:0400d000100200001a
:020000040000fa
:0400d4001002000016
:020000040000fa
:0400d8001002000012
:020000040000fa
:0401080010020000e1
:020000040000fa
:04010c0010020000dd
:020000040000fa
:0401100010020000d9
:020000040000fa
:0401140010020000d5
:020000040000fa
:0401180010020000d1
:020000040000fa
:04011c0010020000cd
:020000040000fa
:0401200010020000c9
:020000040000fa
:0401240010020000c5
:020000040000fa
:0401280010020000c1
:020000040000fa
:04012c0010020000bd
:020000040000fa
:0401300010020000b9
:020000040000fa
:0401340010020000b5
:020000040000fa
:0401380010020000b1
:020000040000fa
:04013c0010020000ad
:020000040000fa
:0401400010020000a9
:020000040000fa
:0401440010020000a5
:020000040000fa
:0401480010020000a1
:020000040000fa
:04014c00cc010000e2
:020000040000fa
:040150001002000099
:020000040000fa
:040154001002000095
:020000040000fa
:040158001002000091
:020000040000fa
:04015c00100200008d
:020000040000fa
:040160001002000089
:020000040000fa
:040164001002000085
:020000040000fa
:040168001002000081
:020000040000fa
:04016c00100200007d
:020000040000fa
:040170001002000079
:020000040000fa
:040174001002000075
:020000040000fa
:040178001002000071
:020000040000fa
:04017c00100200006d
:020000040000fa
:040180001002000069
:020000040000fa
:040184001002000065
:020000040000fa
:040188001002000061
:020000040000fa
:04018c00100200005d
:020000040000fa
:040190001002000059
:020000040000fa
:040194001002000055
:020000040000fa
:040198001002000051
:020000040000fa
:04019c00100200004d
:020000040000fa
:0401a0001002000049
:020000040000fa
:0401a4001002000045
:020000040000fa
:0401a8001002000041
:020000040000fa
:0401ac00100200003d
:020000040000fa
:0401b0001002000039
:020000040000fa
:0401b4001002000035
:020000040000fa
:0401b8001002000031
:020000040000fa
:0401bc00100200002d
:020000040000fa
:0401c0001002000029
:020000040000fa
:0401c4001002000025
:020000040000fa
:0401c8001002000021
:020000040000fa
:0401cc00100200001d
:020000040000fa
:0401d0001002000019
:020000040000fa
:0401d4001002000015
:020000040000fa
:0401d8001002000011
:020000040000fa
:10020000af8020000eff20000e01880000000000db
:10021000000020000000e000020032000001200089
:1002200020028800140007007f0007000000e000a3
:1002300003003a00203220000100200002003700b5
:100240000000200001002000810f7000010032003a
:1002500014000700000020000000e000020032004f
:100260000000020000000000140302000000000073
:100270000040da000000fe004440a900e002200037
:100280000000e0000300320000002000a001880010
:100290004440a800000006008a1f78008b1f7800e9
:1002a0000000060091018800800478000000eb0047
:1002b0001a003700e284440032a0b4009905ba0065
:1002c000e284440032a0b4009906ba00e2844400fb
:1002d00032a0b4000006eb00476fde00fd07b2005d
:1002e000636ce10003003a00ebff07000000eb0045
:1002f0000a003700606ce10004003a00005deb008a
:100300008b05e900fdff3e00040037006168e10055
:10031000010032000086eb000b00070019c7ba008d
:100320001905ba000e04e00003003a000a00e000dc
:10033000e0ff3a0000000600fe07b2009e018800c0
:100340008a047800f5ff3700395dba008b05e900b3
:100350000c003200295dba008b05e900080032006c
:100360000c00e00003003a00e284440032a0b40034
:10037000f5ff370019ddba008b05e900faff3a00f6
:100380008904e800e184440032a0b40000000600c3
:100390000000000000000000809fbe00821f780067
:1003a0003400f80000002000a00188000000fa00de
:1003b0008520a900901080000040780000e8b70078
:1003c00000c8bf000004e000100032003040800090
:1003d00001802000914078008180fb0000014000f6
:1003e000808020000000410001087800304080003b
:1003f000e40f500004003e00304080000000e800a0
:1004000030408800010037000628ef000080fa0025
:100410003400f9004f0178004f00be000040060094
:0c0420000040da000000fe0000000500b3
:020000040000fa
:10042c004a6500006c740000652000006b6f0000d2
:10043c006c650000676900006e6900006365000070
:10044c002c2000006120000073740000612000006b
:10045c006b6f00006c650000676100002068000095
:10046c006f630000652000006f64000020560000e0
:0c047c00617300003f3f00000000000022
:020000040000fa
:100488000000fa0000042000a01088000d42a80017
:100498008d20a80071108000c0ff2f000080600030
:1004a800701088000de2a8000f42a8000080fa0032
:1004b800000006000000fa000228ef000c003700d8
:1004c8000428ef0003003700204080000000e80007
:1004d8002040880021408000703e2000808f50001e
:1004e800f9ff3600104080000000e8001040880046
:1004f8001140800070bb2000808f5000f0ff360054
:100508000080fa00000006000000fa004140800068
:1005180040042000808f500013003a0051408000b2
:10052800f0042000808f50000f003a0061408000e6
:1005380020052000808f50000b003a007140800099
:10054800f0042000808f500007003a0081408000ae
:1005580030052000808f500003003a00412e200013
:1005680060212800010001000080fa000000060058
:100578000200fa00000f78000000000071108000ef
:1005880000102000008060000000e000fbff320047
:100598006010800066006000e60f500003003a001b
:1005a8009e0078008110880003003700f00f2000bb
:1005b8001e006000801088000080fa00000006001d
:1005c8000000fa00881f7800000478000e00370049
:1005d800184078000000fb00e5ff0700184078008d
:1005e800ed4f500002003a00a0002000e0ff070095
:1005f80018407800ea4f500002003a00d00020006e
:10060800dbff07000804e800184078000004e00059
:10061800efff3a004f0478000080fa00000006005f
:100628000400fa00000f78001107980094ff0700f3
:0c063800a0ff0700b4ff0700fdff370023
:020000040000fa
:10064400000800000a000000000000000000000094
:020000040000fa
:0200000401f009
:040000000587000070
:020000040000fa
:0200000401f009
:040004003f000000b9
:00000001FF
